:10000E0000E010080810E000000F102020100F0074
:10001E00001010F8000000000020203F20200000FB
:10002E000070080808887000003028242221300053
:10003E0000300888884830000018202020110E005B
:10004E000000C02010F8000000070424243F240004
:10005E0000F80888880808000019212020110E00D9
:10006E0000E0108888180000000F112020110E00EB
:10007E0000380808C83808000000003F00000000E3
:10008E000070880808887000001C222121221C00A4
:10009E0000E010080810E0000000312222110F00CD
:1000AE0000000030300000000000000606000000D6
:1000BE00000000000000000000010101010101012B
:1000CE00001C0CFCFC0C1C000000080F0F080000AC
:1000DE000000000000000000000000000000000012
:1000EE000000F0F80C040000000003070C080000EC
:1000FE000000040CF8F000000000080C07030000DC
:10010E004020100CE3222222FE2222222202000094
:10011E000404040407040404FF0404040404040097
:10012E000000000000FF1111111111FF000000006E
:10013E00004020100C0301010121413F000000008E
:10014E00000000FE42424242424242FE00000000D7
:10015E000000003F101010101010103F00000000A3
:10016E0000FC444444FC1090101010FF10101000BE
:10017E0000070404040700000340807F0000000015
:10018E0080402098878280808384983060C04000B1
:10019E0000804020100F000020403F0000000000B3
:1001AE001212D2FE9111C0381000FF00081060002C
:1001BE00040300FF00838040402023100804030046
:1001CE00000000FE42424242424242FE0000000057
:1001DE000000003F101010101010103F0000000023
:1001EE0000808080808080808080808080C08000C1
:1001FE0000000000000000000000000000000000F1
:10020E0000000404040404040404040604000000B2
:10021E0000101010101010101010101010181000E8
:10022E00000484848484848484848484840400000C
:10023E0000202020202020202020202020202000F0
:10024E0000FE020202FE0202FE02020202FE000096
:10025E00007F28242320202021222222227F00001A
:10026E00000282828282FE828282C28202000000AC
:10027E0020202020203F202020203F202030200042
:10028E00101010101091121E94101010101010005B
:10029E00004020100C0301000001020C7830000019
:1002AE00000000BE2A2A2AEA2A2A2A2A3E00000034
:1002BE00004846414949497F494949494941400019
:1002CE000004FF545454FF0400FE222222FE0000BC
:1002DE0042221B02020A336218070222423F00002A
:1002EE000020180888E81F6A880888C8A81C08001B
:1002FE0008040241FF40201001020D18702020005A
:10030E000000FE0222222222FA222222E202020011
:10031E0040300F0040201806010020603F00000012
:10032E00000000000000000000303000000000005F
:10033E000018242418000000000000000000000037
:10034E00C0300808080838000718202020100800C0
:10035E000000000000000000004060707800000007
:10036E000000004060707476777777777700000032
:10037E00000000000000000000000000000000006F
:10038E000000004060707476777777777700000012
:10039E00000000000000000000000000000000004F
:1003AE00000000406070707070707070700000001F
:1003BE0000FC444444FC1090101010FE101010006D
:1003CE0000070404040700000320403F0000000063
:1003DE0000F8020200F092929292F20202FE0000E7
:1003EE00007F00000007040404040720403F0000C3
:1003FE004040CE04008040BE828282BEC04040009B
:10040E0000007F20100040432C10102C43400000B1
:10041E0000202EAAAAAEEABAAAAEAAAA2E200000E0
:10042E004040407F6A6A6A6A6A6A6A7F404040005A
:10043E000000F812909296FA9292921202FE00002A
:10044E0000007F001F00003F00080F20407F0000CB
:10045E0040302CEA282800F80808FE0808F80000AA
:10046E000101017F4121000101017F010101000015
:10047E004040CE04008040BE828282BEC04040001A
:10048E0000007F20100040432C10102C4340000031
:10049E0000002EAAAAAEEABAAAAEAAAA2E000000A0
:1004AE004040407F6A6A6A6A6A6A6A7F40404000DA
:1004BE00000000FE42424242424242FE0000000064
:1004CE000000003F101010101010103F0000000030
:1004DE000004FF545454FF0400FE222222FE0000AA
:1004EE0042221B02020A336218070222423F000018
:1004FE0000FC444444FC1090101010FF101010002B
:10050E0000070404040700000340807F0000000081
:10051E0000F8010600F092929292F20202FE0000A2
:10052E0000FF00000007040404040740807F000061
:10053E0004AE530A57485526BD0D26500D95444618
:10054E00AAB9056A4D09AD4224AEB604AE4A6A4D4B
:10055E00BE0A4D520D25465D52BA0B544E0D6A43DE
:10056E00296D37095B4B749BC10497540A4B485B4A
:10057E0025BC06A55006D4454ADAB802B64D095731
:10058E00422497B704974A664B3E0D4A510EA54634
:10059E0056D4BA05AD4E02B644393738092E4B7CC7
:1005AE0096BF0C95530D4A486DA53B0B554F056AEA
:1005BE00454AADB9025D4D092D422C95B60A954AB4
:1005CE007B4ABD06CA510B5546555ABB04DA4E0A34
:1005DE005B43352BB8052B4C8A953F0E955206AAD8
:1005EE00487AD53C0AB54F04B6454A57390A574D95
:1005FE000526423E93350D954975AABE056A5109E9
:10060E006D4654AEBB04AD4F0A4D434D26B70D2576
:10061E004B8D52BF0B54520B6A47696D3C095B50B0
:10062E00049B454A4BB90A4B4DAB25C206A5540651
:10063E00D4496ADA3D0AB6510937465497BB049736
:10064E004F064B4436A5370EA54A86B2BF05AC53AE
:10065E000AB6475936BC092E500C96454D4AB80D70
:10066E004A4C0DA54125AAB6056A497AADBD025D73
:10067E0052092D475C95BA0A954E0B4A434B553796
:10068E000AD54A955ABF04BA530A5B48652BBC0576
:10069E002B500A9345474AB906AA4C0AD54124DA8B
:1006AE00B604B64A69573D0A4E510D26465E933A38
:1006BE000D534D05AA4336B537096D4BB4AEBF0485
:1006CE00AD530A4D486D25BC0D254F0D52445DAA04
:1006DE00380B5A4C056D4124ADB6049B4A7A4BBE7D
:1006EE000A4B510AA5465B52BA06D24E0ADA423579
:1006FE005B3709374B8497C1049753064B4866A561
:10070E003C0EA54F06B2444AB6380AAE4C092E42EC
:10071E003C97350C96497D4ABD0D4A510DA5455560
:10072E00AABA056A4E0A6D43452EB7052D4B8A951A
:10073E00BF0A95530B4A476B553B0AD54F055A4591
:10074E004A5D380A5B4C052B423A93B606934977BD
:10075E0029BD06AA510AD54654DABA04B64E0A572E
:10076E00434527380D264A8E933E0D52520DAA4709
:10077E0066B53B056D4F04AE454A4EB90A4D4C0D5C
:10078E0015412D92B5001F3B5A7897B5D4F3011140
:10079E000130014E000303060104060205000305A5
:1007AE0000000000E0F8FCFCFCFCF8E0000000009B
:1007BE000010183E3F7F5F9F9F5F7F3F3E181000E7
:1007CE00000000C0702000FF001020C0800000005C
:1007DE00040201000040807F0000000001070200BB
:1007EE0000FC444444FC1090101010FF1010100038
:1007FE0000070404040700000340807F000000008F
:10080E0080402098878280808384983060C040002A
:10081E0000804020100F000020403F00000000002C
:10082E0040302CEB282800F80808FF0808F80000D4
:10083E00010101FF412100010101FF010101000041
:10084E00101091D63098000808F8080808FC080027
:10085E00020100FF0182402018074080403F000047
:10086E0000808080808080808080808080C080003A
:10087E00000000000000000000000000000000006A
:10088E00000004040404040404040406040000002C
:10089E000010101010101010101010101018100062
:1008AE000004848484848484848484848404000086
:1008BE00002020202020202020202020202020006A
:1008CE0000FE020202FE0202FE02020202FE000010
:1008DE00007F28242320202021222222227F000094
:1008EE00000282828282FE828282C2820200000026
:1008FE0020202020203F202020203F2020302000BC
:10090E00101010101091121E9410101010101000D4
:10091E00004020100C0301000001020C7830000092
:10092E0000404040404040FE20202020202020005B
:10093E00000000000000003F4040404040380000F2
:10094E0000000000807C0800007E84000000000093
:10095E0020100806010000000000010618301000EB
:10096E000010101010907F101010F81000000000F2
:10097E00004020100C03000000007F404078200053
:10098E0040404040404040FF4040404040404000DA
:10099E00000000000000007F0000000000000000CA
:1009AE000020180888E81F6A880888C8A81C080054
:1009BE0008040241FF40201001020D187020200093
:1009CE000000FE0222222222FA222222E20202004B
:1009DE0040300F0040201806010020603F0000004C
:1009EE00000000BE2A2A2AEA2A2A2A2A3E000000ED
:1009FE00004846414949497F4949494949414000D2
:100A0E000004FF545454FF0400FE222222FE000074
:100A1E0042221B02020A336218070222423F0000E2
:100A2E00000202C2020202FE828282C28302000021
:100A3E004040407F4040407F40404040406040004A
:100A4E00000020100817A444A4940C040000000019
:100A5E000404020201252448488001010206020016
:100A6E0000FE2222FF4248487F48487FC868400067
:100A7E00403F0282FF0000FF49494949FF01000043
:100A8E0000060909E6F0180808081830780000007A
:100A9E0000000000070F1830202020100800000072
:100AAE0020202020FE2020202020FE20203020008C
:100ABE0000000000FF4040404040FF0000000000EA
:100ACE00221408F44221F817D2929292DF9210006B
:100ADE000442817F0000FF8544241F2444C6440045
:100AEE0008284888681800FC061544847E04000017
:100AFE00100806010214101312121A52827F0200FD
:100B0E0000221408F40320988F88C88808FC080077
:100B1E00084482413F00001F08084F80403F0000FC
:100B2E0040221408F40225A4643F342CA432200081
:100B3E00080442817F0201FF49494949FF01000033
:100B4E0000BE2AAA2929E022AA2A2AAA3F020000C8
:100B5E00407F202409407F202409001F6080E00090
:100B6E000040300E080808FF0808080C0880000036
:100B7E0001010101010101FF01010101010101005A
:100B8E000000F8484848F84F4A2A2B0AA8180000D7
:100B9E0080403F80403C0405057F858181E0000058
:100BAE002010F814131212F21A161210F810000078
:100BBE0000808341211907013F4145594340700090
:100BCE001010101010907F10F0121410D01810008A
:100BDE00008040300C2320103F44424140407800BA
:100BEE0000F010FF10F02018C8090E088828180011
:100BFE002067221F123B00003F44424141407000DB
:100C0E0000000202FA0202020202FF02008000004D
:100C1E00080808080909090909094D89413F010019
:100C2E0000088888898A8CF88C8A89C88C0800000C
:100C3E0008080808080808FF08080808080C080033
:100C4E000000FC84A4A4A4A5FEA4A4A4F4A684007D
:100C5E0040300F808242221A071A222247C04000DB
:100C6E00404044444C7445C644645C464460400075
:100C7E0000040404040404FF040404040604000035
:100C8E0000000404040404FC0402020302800000B9
:100C9E00010141414141417F414141614101010019
:100CAE0000804A32928A86808798A452888080007B
:100CBE00018084444424140F14142466C4010000DB
:100CCE000000FE22222222FE22222222FF02000009
:100CDE0000000702020202FF0202020207000000E9
:100CEE000004040404844424140C040000000000D6
:100CFE0000003846414040404040404040780000AF
:100D0E000404C444444444FC44444444E4460400BF
:100D1E000000FF0010080403020458807F0000004A
:100D2E0000040404040404FC040404040604000087
:100D3E00000000000040807F000000000000000066
:100D4E000000F808080808087F880A0C08C8000088
:100D5E0040300F000000404020131C244380E00070
:100D6E000002F24242424242424242FF0200000070
:100D7E0000003F404040404040404040407800002E
:100D8E000000F888888888FF88888888FC0800001A
:100D9E0000001F08080808FF080808081F000000C8
:100DAE000202F21212FE121212FE1212FA130200B6
:100DBE000000FF444A494848484D4941FF000000A1
:100DCE000000F808088808087F880A0C08C8000088
:100DDE0040300F010101414020131C244380E000EC
:100DEE00080808088848291E88486808080C080062
:100DFE000080905149252311080C122340C0000099
:100E0E0080808282828282E2A2928A8680C0800064
:100E1E00000000000040807F000000000000000085
:100E2E00000002828282FE82828282FF0200000025
:100E3E0040404040407F40404040407F4060400046
:100E4E00100CA4A4A4A4A5E6A4A4A4B4A4140C00F9
:100E5E0000804F4A2A2A0A0F0A2A2A4A4F80000087
:100E6E000000FC040203FA0000FC040404FE04006B
:100E7E000040472422120F0000FF02040807000062
:100E8E000000FE929292929292929A93C2800000E9
:100E9E0040300F0000FF4023040814122060200091
:100EAE0000FE42424242424242424242FF020000A1
:100EBE00003F404040404040404040404040700075
:100ECE0000402018070404FC0404040604800000FB
:100EDE0001010101010101FF0101010101010100F7
:100EEE0080888888888888FF888888888CC8800051
:100EFE0000201008040201FF010204081030100047
:100F0E0096B4A5B5A6A6878888788786A5B3A5A525
:100F1E00A6A6888888788787A5B496A59696887899
:100F2E007878878795B496A5969788787869788724
:100F3E0096B4A5B5A6A6878888788786A5B3A5A5F5
:100F4E00A6A6888888788787A5B496A5A696888849
:100F5E007878878795B496A59697887878697887F4
:100F6E0096B4A5B5A6A6878887788786A5B3A5B5B6
:100F7E00A6A6888888788787A5B496A5A696888819
:100F8E007878878795B496A59697887878797887B4
:100F9E0096B4A5B5A5A6878887788786A5B3A5B587
:100FAE00A6A6878888788787A5B496A5A6968888EA
:100FBE007878878795B496A5969788787879778785
:100FCE0095B4A5B4A5A6878887788786A5C3A5B549
:100FDE00A6A6878888788787A5B4A6A5A6968888AA
:100FEE0078788787A5B496A5969688787879778746
:100FFE0095B4A5B4A5A6978787788786A5C3A5B50A
:10100E00A6A6878888788786A5B4A5A5A69688887B
:10101E0088788787A5B496A5969688787879778705
:10102E0095B4A5B4A5A6978787788796A5C3A5B5C9
:10103E00A6A6878888788786A5B3A5A5A6A688883C
:10104E0088788787A5B496A59696887878788787C6
:10105E0095B4A5B4A5A6978787788796A5C3A5B599
:10106E00A6A6878888788786A5B3A5A5A6A688880C
:10107E0088788787A5B496A5969688787878878796
:10108E0095B4A5B4A5A6978787788796A5C3A5B569
:10109E00A6A6888888788786A5B3A5A5A6A68878EB
:1010AE0088788787A5B496A5A69688887878878746
:1010BE0095B4A5B4A5A6978787788796A5C3A5B539
:1010CE00A6A6878888788786A5B3A5A5A6A68888AC
:1010DE0088788787A5B496A5A69688887878878716
:1010EE0095B4A5B4A5A6978787788796A5C3A5B509
:1010FE00A5A6878887788786A5B3A5B5A6A688886E
:10110E0088788787A5B496A5A696888878788787E5
:10111E0095B4A5B4A5A6978787888796A5C3A5B4C9
:10112E00A5A6878887788786A5B3A5B5A6A687883E
:10113E0088788787A5B496A5A696888878788787B5
:10114E0095B4A5B4A5A5978787888696A4C3A5A5AB
:10115E00A5A6978787788786A5C3A5B5A6A68788EF
:0D116E007878878700592309041100371491
:062B2000010A00010B0098
:102A5600EF1FAA0670011E4A600BE4FDEDC3947DCC
:052A660050EE0D80F7A9
:012A6B002248
:0C2AF40075803FC2A0C2A1D2A2C2A222E3
:0C2B000075803EC2A0C2A1D2A2C2A222D7
:0E2AD800EF44B8F580C2A0C2A1D2A2C2A222D1
:0E2AE600EF4440F580C2A0C2A1D2A2C2A2223B
:1029B100AE05AD07EEC394405008D2A3C2A4AF0642
:1029C1008008C2A3D2A4EE24C0FF122AE6AF0502FA
:0229D1002AD802
:0B2B0C008F80C2A0C2A1D2A2C2A222F0
:072A97003EF583E493F4FF18
:0B2A9E008F80D2A0C2A1D2A2C2A2224F
:1025B900AB30AA31A932121C99540FFAD2077543CC
:1025C90002754418C454F0240EF582E43400AF8235
:0425D900F5458F46EF
:1025DD0085444730073FE4FCEC2543F543854744EC
:1025ED00E4FBAD44AF431229B10544EC75F008A4EA
:1025FD00FFEB7583002FFFE58335F0FEE5462FF5E4
:10260D0082E5453EF583E493FF122A9E0BBB08D26B
:10261D000CBC02C422E4FCEC2543F543854744E49D
:10262D00FBAD44AF431229B10544EC75F008A4FF8E
:10263D00EB7583002FFFE58335F0FEE5462FF58220
:0D264D00E545122A970BBB08D80CBC02CA49
:01265A00225D
:10265B00C454F0F544EAC43354E024BEF582E434A8
:07266B0003AF82F5458F4625
:1026720085444730073FE4FCEC2543F54385474456
:10268200E4FBAD44AF431229B10544EC75F010A44C
:10269200FFEB7583002FFFE58335F0FEE5462FF54E
:1026A20082E5453EF583E493FF122A9E0BBB10D2CE
:1026B2000CBC02C422E4FCEC2543F543854744E408
:1026C200FBAD44AF431229B10544EC75F010A4FFF1
:1026D200EB7583002FFFE58335F0FEE5462FF5828B
:0D26E200E545122A970BBB10D80CBC02CAAC
:0126EF0022C8
:1029D300D2A3D2A4E4FEAF06122AD8E4FF122AE659
:0F29E300E4FDE4FF122A9E0DBD40F70EBE08E78B
:0129F20022C2
:102A0F00122B007FB8122B0C7F40122B0C7FC012A1
:082A1F002B0C122AF40229D34A
:061F58008B308A31893252
:101F5E00AA31121C99C4540FFAD207754302754464
:101F6E00501225CDAB30AA31A932121C99540FFA5A
:101F7E00D2077543027544581225CDD20775430218
:101F8E007544607545017546AE1226727401253290
:101F9E00F532E43531F531AB30FAA932121C99C461
:101FAE00540FFAD2077543027544301225CDAB306B
:101FBE00AA31A932121C99540FFAD2077543027531
:101FCE0044381225CDD2077543027544407545013C
:101FDE0075468E12267274012532F532E43531F5CE
:101FEE003120022BAB30FAA932121C99C4540FFACD
:101FFE00D2077543027544101225CD1225B9D207AA
:10200E0075430275442075450175466E1226723071
:10201E000265AB30AA31A932121C99FFC4540F7558
:10202E00F00AA4FEEF540F2EFAD3940C401D74F454
:10203E002AFA75F00A84C454F0FFEA75F00A84E5B2
:10204E00F0540F2FAA31121D018000AB30AA31A916
:10205E0032121C99C4540FFAD207754302754410FC
:10206E001225CD1225B9D207754302754420754548
:07207E000175466E12267287
:012085002238
:062194008B308A31893214
:10219A0074032532F532E43531F531FAA932121CCD
:1021AA0099C4540FFFD207E4F543754458EF12253A
:1021BA00CDAB30AA31A932121C99540FFFD207E4D1
:1021CA00F543754460EF1225CDD207E4F543754413
:1021DA006875450175464E12267274012532F5322C
:1021EA00E43531F531AB30FAA932121C99C4540FD7
:1021FA00FFD207E4F543754438EF1225CDAB30AA78
:10220A0031A932121C99540FFFD207E4F5437544E1
:10221A0040EF1225CDD207E4F543754448754501D0
:10222A0075462E12267274022532F532E43531F5DE
:10223A0031AB30FAA932121C99C4540FFFD207E409
:10224A00F543754418EF1225CDAB30AA31A93212E5
:10225A001C99540FFFD207E4F543754420EF122569
:10226A00CDD207E4F54375442875450175460E122B
:10227A002672D207E4F54375440875450075462E63
:10228A001225DDD207E4F5437544107545007546FD
:04229A000E0225DD2E
:10283E00900006121CB2FAD207754306E4F54475F1
:10284E0045027546AE122672D207754306754410C0
:10285E007545027546CE122672D20775430675442B
:10286E0020EA540F75F020A424CEF582E5F0340151
:09287E00AF82F5458F4602267277
:102A6C008B2D8A2E892F122194AB2DAA2EA92FA241
:062A7C00019202021F5846
:061482008B3A8A3B893C15
:10148800121C99FFC4540F753D00F53EEF540F75BB
:101498003F00F540AE3DAF3E7C007D0A121D35E5AC
:1014A800402FF542E53F3EF541FEAF42121D47EFA2
:1014B80064014E7024AE41AF42FC7D0A121D47D331
:1014C800ED9400EC94004011D20775430475446014
:1014D80075450975468E021560AE41AF427C007DA8
:1014E8000A121D47EF64024E7023AE41AF42FC7DE5
:1014F8000A121D47D3ED9400EC94004010D20775F2
:10150800430475446075450A7546AE804BAE41AFDD
:10151800427C007D0A121D47EF64014E7010D2070D
:1015280075430475446075450875464E802AD20790
:10153800754304754460AE41AF427C007D0A121DBC
:1015480047EF7805C333CE33CED8F9244EF58274ED
:10155800083EAF82F5458F46122672AE41AF427CF7
:10156800007D0A121D47ED4C7010D20775430475B3
:10157800447075450975468E802CD20775430475ED
:101588004470AE41AF427C007D0A121D47EDAE04A7
:101598007805C333CE33CED8F9244EF58274083E8D
:1015A800AF82F5458F461226727401253CF53CE45E
:1015B800353BF53BAB3AFAA93C121C99FFC4540FD2
:1015C800753D00F53EEF540F753F00F540AE3DAF59
:1015D8003E7C007D0A121D35E5402FF542E53F3E71
:1015E800F541D20775430475445075450175462E7B
:1015F800122672E542640145417010D20775430412
:1016080075444075450A75462E8052E542640B457F
:10161800417010D20775430475444075450A7546F4
:101628004E803AE542640C45417010D20775430478
:1016380075444075450A75466E8022D20775430485
:10164800754440E542AE417805C333CE33CED8F970
:10165800244EF58274083EAF82F5458F46122672F5
:101668007401253CF53CE4353BF53BAB3AFAA93C23
:10167800121C99FFC4540F753D00F53EEF540F75C9
:101688003F00F540AE3DAF3E7C007D0A121D35E5BA
:10169800402FF542E53F3EF541D207754304E4F596
:1016A80044E54224D0FFE5413407FE121D47EDAE64
:1016B800047805C333CE33CED8F9244EF582740CA2
:1016C8003E12266CAB3AAA3BA93C121C99540F75E2
:1016D8003D00F53ED207754304754410E54224D019
:1016E800FFE5413407FE7C007D0C121D47EDAE047A
:1016F8007805C333CE33CED8F9248EF582740D3EE7
:1017080012266CD207754304754420E54224D0FFA5
:10171800E5413407FE7C007D0C121D47EDAE0478D0
:1017280005C333CE33CED8F924CEF582740A3E12DF
:10173800266CD20775430475443075450175460E0D
:0317480002267204
:061D9C008B2D8A2E892F19
:101DA200E4F531900001121CB2D3947F402F7531BB
:101DB20001121C99F404121D01AB2DAA2EA92F1297
:101DC2001C99C394FF9000014007121CB2F40480D6
:101DD20004121CB2F4900001121D138003E4F531C9
:101DE200AB2DAA2EA92F121C99540FB410005071BA
:101DF200901DF9F8282873021E29021E2E021E3099
:101E0200021E35021E37021E3C021E41021E430202
:101E12001E48021E4D021E4F021E54021E59021E71
:101E22005B021E60021E60E4F53080358000753072
:101E320001802E8000753002802775300380228059
:101E420000753004801B75300580168000753006E1
:101E5200800F753007800A80007530088003753066
:101E620009D2077543067544387545007546CE128A
:101E720025DDD2077543067544407545007546AEAB
:101E82001225DDD2077543067544787545037546FC
:101E92004E1225DDD20775430675447075450375EC
:101EA200463E1225DDD207754306754468E53012B9
:101EB20025CDD20775430675446075450375462ED8
:101EC2001225DDAB2DAA2EA92F121C99C4540FF591
:101ED200307401252FF52FE4352EF52EFAA92F1295
:101EE2001C99C454F04230D207754306754458E534
:101EF2003075F00A84E5F01225CDE53075F00A84DC
:101F0200FA7010D207754306754450754500754640
:101F1200DE8019D207754306754450EAC454F02492
:101F22000EF582E43400AF82F5458F461225DDE5D9
:101F320031B40110D20775430675444875450075E2
:101F420046BE800ED2077543067544487545007536
:051F520046DE1225DD52
:011F57002267
:08174B00AB3DAA3EA93F7F025D
:061753008B408A4189422F
:10175900D201D202D203D204D205D206BF0102C2FB
:1017690006BF0202C205BF0302C204BF0402C203CC
:10177900BF0502C202BF0602C201D207754302E4D5
:10178900F5447545047546BE122672D207754302A3
:101799007544107545047546DE1226727406254295
:1017A900F542E43541F541AB40FAA942121C99C40E
:1017B900540FA20192077543027544281225CDAB37
:1017C90040AA41A942121C99540FA20192077543DC
:1017D900027544301225CDD2077543027544387518
:1017E90045007546BE1225DD74FE2542F54274FF9B
:1017F9003541F541AB40FAA942121C99C4540FA2D4
:101809000292077543027544401225CDAB40AA41A7
:10181900A942121C99540FA20292077543027544FA
:10182900481225CDD2077543027544507545007598
:1018390046BE1225DD74FF2542F54274FF3541F598
:1018490041AB40FAA942121C99C4540FA203920752
:101859007543027544581225CDAB40AA41A94212DD
:101869001C99540FA203920775430275446012250F
:10187900CDD207754304E4F5447545047546FE1257
:101889002672D20775430475441075450575461EC1
:1018990012267274FF2542F54274FF3541F541ABBA
:1018A90040FAA942121C99C4540FA2049207754325
:1018B900047544281225CDAB40AA41A942121C99AE
:1018C900540FA20492077543047544301225CDD2F2
:1018D900077543047544387545007546AE1225DD14
:1018E90074FF2542F54274FF3541F541AB40FAA931
:1018F90042121C99C4540FA20592077543047544FA
:10190900401225CDAB40AA41A942121C99A20592C9
:10191900077543047544481225CDD20775430475EC
:1019290044507545007546AE1225DD74FF2542F514
:101939004274FF3541F541AB40FAA942121C99C4E2
:10194900540FA20692077543047544581225CDAB6E
:1019590040AA41A942121C99540FA2069207754345
:1019690004754460C454F0240EF582E43400AF8257
:07197900F5458F460225DD54
:10290000D201D202BF0202C201BF0102C202E4FA36
:10291000A2019207E4F543EA12265B0ABA04F17AAF
:1029200004A2029207754302EA24FC12265B0ABA4B
:0229300008EFAE
:012932002282
:062086008B378A3889390E
:10208C00D201D202BF0102C202BF0202C201D207B8
:10209C00E4F543F5447545077546AE122672D20732
:1020AC00E4F5437544107545077546CE122672D279
:1020BC0007E4F5437544207545077546EE12267204
:1020CC00D207E4F5437544307545007546AE1225CC
:1020DC00DDD207E4F54375443875450875460E1294
:1020EC002672D207E4F54375444875450875462EAB
:1020FC00122672AB37AA38A939900001121CB2759E
:10210C00F00A84A20192077543027544201225CD72
:10211C00AB37AA38A939900001121CB275F00A84A9
:10212C00AFF0A2019207754302754428EF1225CD3A
:10213C00D2077543027544307545007546AE1225BD
:10214C00DDAB37AA38A939121C9975F00A84A202A2
:10215C0092077543027544381225CDAB37AA38A9BE
:10216C0039121C9975F00A84AFF0A20292077543DC
:10217C0002754440EFC454F0240EF582E43400AFF1
:08218C0082F5458F460225DDB6
:0F2AA900EF7F08A2E09290D291C291C313DFF4A5
:012AB80022FB
:0F2AB9007F08C313A29092E7D291C291DFF4FF7E
:012AC80022EB
:102A8200AE05C291C292D292122AA9AF06122AA907
:052A9200C292D2912266
:102A3F00E4FEC291C292D292EF4401FF122AA91270
:062A4F002AB9C292D291E7
:012A5500225E
:102460008B348A358936E4FD7F8E122A82AB34AAFA
:1024700035A936121C99547F121D01AB34AA35A917
:1024800036121C99FD7F80122A8274012536F5369A
:10249000E43535F535AB34FAA936121C99FD7F8247
:1024A000122A8274012536F536E43535F535AB341C
:1024B000FAA936121C99FD7F84122A8274012536EE
:1024C000F536E43535F535AB34FAA936121C99FDED
:1024D0007F86122A8274012536F536E43535F535C6
:1024E000AB34FAA936121C99FD7F88122A82740235
:1024F0002536F536E43535F535AB34FAA936121CF8
:0E25000099FD7F8C122A827D807F8E022A82B6
:062961007B007A007922E0
:062967008B2D8A2E892F42
:10296D00E4FD7C80AF04122A3FAB2DAA2EA92F8D3A
:0E297D0082758300EF121D130C0C0DBD07E6D2
:01298B002229
:07000300AE071FEE70FA22A8
:1029F300E4FC7D08C2B4ECC313FCD2B430B403438B
:0B2A030004807F14120003DDEBAF0421
:012A0E0022A5
:022A2700AD07F9
:102A29007B08C2B4ED1392B47F14120003D2B4ED43
:052A3900C313FDDBEDFD
:012A3E002275
:10298C00E4FDD2B47F01120003C2B47F64120003D1
:10299C00D2B47F06120003A2B4E433FD7F8212008E
:0429AC0003EDF4FF44
:0129B0002204
:102887008B2D8A2E892F12298C7FCC122A277F44E1
:10289700122A2712298C7FCC122A277FBE122A27B9
:1028A7001229F3AB2DAA2EA92FEF121D011229F31E
:0D28B700AB2DAA2EA92F900001EF021D13DA
:0627EF00AD34AC33AF3144
:0627F5008C3A8D3BAB079E
:1027FB00EB2403FFE433FEEF7803CEC313CE13D8E1
:10280B00F9FFEB24035407FE7480A806088002C36B
:10281B0013D8FCFEEF7C00253BFDEC353AFC743EF7
:10282B002DF58274053CF583E4935206EE7002C3DA
:02283B0022D3A6
:01283D002278
:021980008F2DA9
:10198200740329F9E43AFA121C99FFC4540F75F052
:101992000AA4FEEF540F2EF530740129F9E43AFA45
:1019A200121C99FFC4540F75F00AA4FEEF540F2EB7
:1019B200F52F740229F9E43AFA121C99FFC4540F64
:1019C20075F00AA4FEEF540F2EF52EE52D7009E5F1
:1019D2002E2463FFE4338008E52E24FFFFE434FF66
:1019E200FE7C007D03121D358E338F347440253406
:1019F200F58274053533F583E493FF5460C41354C0
:101A020007FAEF541FF914F532EA64016006741FF5
:101A12002532F532E52FC3940AE52F500E90079236
:101A2200932530F536E433F535801825E02488F522
:101A320082E43407F5837401932530F536E4933458
:101A420000F535E52FD394024006E52E54036008D5
:101A5200E536153670021535AF327E00C3E5369F86
:101A6200E5359E4072E5369FF536E5359EF53575CE
:101A72002F017531011227EF9201C2022001047A6F
:101A82001D80027A1E743E2534F58274053533F5C5
:101A920083E49354F0C4540FF9EAFF7E00C3E536A1
:101AA2009FE5359E402CE5369FF536E5359EF535AA
:101AB2000531E52FB50109B202200206052F800289
:101AC200052F1227EF92013001047A1E80CB7A1D76
:101AD20080C7E536021B58C3E5329536F532E52E4E
:101AE2007008752EE3752D018002152E74FD2534C4
:101AF200F53474FF3533F533752F0CFE743E2534FF
:101B0200F58274053EF583E49354F0C4540FF9C290
:101B120002700575310C800375310D1227EF9201A9
:101B22003001047A1E80027A1DE532D39A4023E501
:101B3200329AF5321531200202152FE52FB5010236
:101B4200B2021227EF92013001047A1E80DB7A1D65
:101B520080D7C3EA953204F530E52E75F00A84C4C5
:101B620054F0FAE52E75F00A84E5F04AF539E52FCE
:101B720075F00A84C454F0FAE52F75F00A84E5F092
:101B82004AF538E53075F00A84C454F0FAE5307548
:101B9200F00A84E5F04AF5377B007A0079370214BF
:011BA20082C0
:10250E00900006121CB2F508900004121CB2FF9047
:10251E000003121CB2FEC4540F75F00AA4FDEE5453
:10252E000F2DFDEFC4540F75F00AA4FEEF540F2EBD
:10253E00FCE508C4540F75F00AA4FFE508540F2FEC
:10254E0024D0243075F00CA4FFEC7A002FFFEA356E
:10255E00F0CF24FFCF34FFFEEDC3940F5023C3748E
:10256E000F9DF509740E2FF582740F3EF583E493DB
:10257E00C4540FB50908EC25E0C39401FF227F0077
:10258E0022BD0F037F0022EDD3940F401DED24F1E9
:10259E00F509740E2FF582740F3EF583E493540FF4
:0A25AE00B50905EC25E0FF227F00CF
:0125B8002200
:092B1700E5B0540FFFBF0FF822D6
:1028C400E5B0540F640F60317F047E00122A56E590
:1028D400B0540F640F6022E5B0540F24F96014243F
:1028E400FC600D24FE600614700C7F01227F02221E
:0C28F4007F03227F04227F00227F00224D
:06117B008B348A35893631
:101181007537028B3D8A3E893F122B17122B17E5CB
:101191003724FD70030212311470030212C514705A
:1011A100030213591470030213ED240460030214A3
:1011B1008112174B74012536F536E43535F535AB1B
:1011C10034FAA936121C99FFC4540F75F00AA4FE13
:1011D100EF540F2EF5381228C4EF24FE601424FEBC
:1011E1006049240370F00538E538B43C03E4F53870
:1011F1008009E538700375383C1538E53875F00A13
:1012010084C454F0AB34AA35A936121D01AB34AAFB
:1012110035A936121C99FFE53875F00A84E5F04FBF
:10122100121D0112174B122B1780AB053702118DBE
:1012310074012536F536E43535F535AB3DAA3EA9C1
:101241003F7F03121753AB34AA35A936121C99FFFD
:10125100C4540F75F00AA4FEEF540F2EF53912286D
:10126100C4EF24FE601424FE6055240370F0053998
:10127100E539B41803E4F539800DE53970037539A2
:1012810018D53903753917E53975F00A84C454F056
:10129100AB34AA35A936121D01AB34AA35A93612D1
:1012A1001C99FFE53975F00A84E5F04F121D01AB79
:1012B1003DAA3EA93F7F03121753122B17809F05AA
:1012C1003702118D74012536F536E43535F535AB28
:1012D1003DAA3EA93F7F04121753AB34AA35A93664
:1012E100121C99FFC4540F75F00AA4FEEF540F2E7F
:1012F100F53A1228C4EF24FE601424FE605524033D
:1013010070F0053AE53AB42003753A01800DE53AEB
:101311007003753A1FD53A03753A1FE53A75F00A1D
:1013210084C454F0AB34AA35A936121D01AB34AADA
:1013310035A936121C99FFE53A75F00A84E5F04F9C
:10134100121D01AB3DAA3EA93F7F04121753122B78
:1013510017809F053702118D74012536F536E43566
:1013610035F535AB3DAA3EA93F7F05121753AB3486
:10137100AA35A936121C99FFC4540F75F00AA4FEB0
:10138100EF540F2EF53B1228C4EF24FE601424FE07
:101391006055240370F0053BE53BB40D03753B013B
:1013A100800DE53B7003753B0CD53B03753B0CE5AC
:1013B1003B75F00A84C454F0AB34AA35A936121D2A
:1013C10001AB34AA35A936121C99FFE53B75F00A29
:1013D10084E5F04F121D01AB3DAA3EA93F7F0512E6
:1013E1001753122B17809F053702118D7402253672
:1013F100F536E43535F535AB3DAA3EA93F7F0612FA
:101401001753AB34AA35A936121C99FFC4540F7572
:10141100F00AA4FEEF540F2EF53C1228C4EF24FE6F
:10142100601424FE6055240370F0053CE53CB4646F
:1014310003E4F53C800DE53C7003753C64D53C0349
:10144100753C64E53C75F00A84C454F0AB34AA35AC
:10145100A936121D01AB34AA35A936121C99FFE534
:101461003C75F00A84E5F04F121D01AB3DAA3EA97F
:101471003F7F06121753122B17809F053702118DDC
:011481002248
:062389008B348A35893611
:10238F00804A1228C4EF24FE602714604914604865
:10239F00240370EEAB34AA35A9367401121CDF1278
:1023AF001C99B43C04E4121D01AB34AA35A9368044
:1023BF001BAB34AA35A936121C997005743C121D3B
:1023CF0001AB34AA35A93674FF121CDF7F0112202E
:1023DF0086122B1780AC807374012536F536E435E1
:1023EF0035F535AB34FAE536804E1228C4EF24FEAE
:1023FF00602A146054146053240370EEAB34AA3572
:10240F00A9367401121CDF121C99B41804E4121DB2
:10241F0001AB34E53624FFF9E5358020AB34AA351E
:10242F00A936121C9970057418121D01AB34AA3508
:10243F00A93674FF121CDFE924FFF9EA34FFFA7F93
:10244F0002122086122B1780A180001229D3022B93
:01245F001765
:06277C008B2D8A2E892F2F
:102782007533021229D380261228C4EF24FE601862
:10279200146025146024240370EE0533E533D394CA
:1027A2000240037533028006D53303753301AF331C
:1027B200122900122B1780D0802DE533B402171294
:1027C20029D3AB2DAA2EA92F12117BAB2DAA2EA98C
:1027D2002F1224608011E533B401AD1229D3AB303E
:0D27E200AA31A9321223891229D3022B1724
:03000B0002293394
:04293300C0E0C0D070
:10293700750A00C28C758C3C758AB0D28C050AE585
:102947000AB41407B296750A00050BE50BB4060521
:05295700750B00C28CAD
:05295C00D0D0D0E032F4
:0E2AC900EFC4540F75F00AA4FEEF540F2EFF59
:012AD70022DC
:10229E00E4F521C20078227C00FD7BFF7A11797271
:1022AE00FE7F07121C7378297C007D007BFF7A115C
:1022BE0079797E007F02121C73122A0F1229617B1C
:1022CE00007A007922122460C297D2AFD2A9D2AD81
:1022DE0075890175CB3C75CAB01228C4EF602B24EA
:1022EE00FE600C14600B14600F240370EC800480ED
:1022FE0002B200122B1780E1753000753100753275
:10230E00297B007A00792212277C1229617B007AC0
:10231E00007922A2009201122A6C7B007A00792B9E
:10232E001228877B007A00792B121D9C7B007A0085
:10233E007922E4FF1219807B007A00792212283E5E
:10234E00AF23122AC9EF6529702BAF24122AC9EFC9
:10235E00B52A0C1228C4EF7006E5217002C296AFA2
:10236E0024122AC9EFB52AD81228C4EF60D2D29609
:0B237E0075210180CBE4F5210222E76D
:030000000226F0E5
:0C26F000787FE4F6D8FD7581470227379B
:101BA300E709F608DFFA8046E709F208DFFA803E24
:101BB30088828C83E709F0A3DFFA8032E309F60811
:101BC300DFFA8078E309F208DFFA807088828C8379
:101BD300E309F0A3DFFA806489828A83E0A3F6082D
:101BE300DFFA805889828A83E0A3F208DFFA804C07
:101BF30080D280FA80C680D4806980F280338010DE
:101C030080A680EA809A80A880DA80E280CA803346
:101C130089828A83ECFAE493A3C8C582C8CCC583BE
:101C2300CCF0A3C8C582C8CCC583CCDFE9DEE7808E
:101C33000D89828A83E493A3F608DFF9ECFAA9F00D
:101C4300EDFB2289828A83ECFAE0A3C8C582C8CC63
:101C5300C583CCF0A3C8C582C8CCC583CCDFEADE7C
:101C6300E880DB89828A83E493A3F208DFF980CCDE
:101C730088F0EF60010E4E60C388F0ED2402B404D7
:101C83000050B9F582EB2402B4040050AF2323457E
:061C93008223901BF37395
:101C9900BB010689828A83E0225002E722BBFE0249
:091CA900E32289828A83E493227C
:101CB200BB010CE58229F582E5833AF583E02250E7
:101CC20006E92582F8E622BBFE06E92582F8E22231
:0D1CD200E58229F582E5833AF583E493224B
:101CDF00BB010989828A83F8E028F022500327F795
:101CEF0022BBFE05F8E328F3228A838982F8E49366
:021CFF00282299
:101D0100BB010689828A83F0225002F722BBFE01C1
:021D1100F322BB
:101D1300F8BB010DE58229F582E5833AF583E8F006
:101D2300225006E92582C8F622BBFE05E92582C8B2
:021D3300F2229A
:101D3500EF8DF0A4A8F0CF8CF0A428CE8DF0A42EC2
:021D4500FE227C
:101D4700BC000BBE0029EF8DF084FFADF022E4CC80
:101D5700F875F008EF2FFFEE33FEEC33FCEE9DEC49
:101D6700984005FCEE9DFE0FD5F0E9E4CEFD22ED8F
:101D7700F8F5F0EE8420D21CFEADF075F008EF2FD9
:101D8700FFED33FD4007985006D5F0F222C398FDCA
:051D97000FD5F0EA2267
:1026FC0002229EE493A3F8E493A34003F68001F234
:10270C0008DFF48029E493A3F85407240CC8C333DE
:10271C00C4540F4420C8834004F456800146F6DFAD
:10272C00E4800B0102040810204080902B20E47EF2
:10273C00019360BCA3FF543F30E509541FFEE493A2
:10274C00A360010ECF54C025E060A840B8E493A369
:10275C00FAE493A3F8E493A3C8C582C8CAC583CA94
:10276C00F0A3C8C582C8CAC583CADFE9DEE780BE4C
:012B260000AE
:00000001FF
